:020000040800F2
:100000003804002045010008850300087D0300082E
:10001000810300082F020008FD070008000000000F
:1000200000000000000000000000000013050008B0
:1000300033020008000000008703000825060008BE
:100040005F0100085F0100085F0100085F01000810
:100050005F0100085F0100085F0100085F01000800
:100060005F0100085F0100085F0100085F010008F0
:100070005F0100085F0100085F0100085F010008E0
:100080005F0100085F0100085F0100085F010008D0
:100090005F0100085F0100085F0100085F010008C0
:1000A0005F0100085F0100085F0100085F010008B0
:1000B0005F0100085F0100085F0100085F010008A0
:1000C0005F0100085F0100085F0100085F01000890
:1000D0005F010008890600088B0600088D060008ED
:1000E0005F0100085F0100085F0100085F01000870
:1000F0005F0100085F0100085F0100085F01000860
:100100005F0100085F0100085F0100085F0100084F
:100110005F0100085F0100085F0100085F0100083F
:100120005F0100085F0100085F0100085F0100082F
:10013000DFF80CD000F04AF8004800472D0F000807
:10014000380400200648804706480047FEE7FEE7DF
:10015000FEE7FEE7FEE7FEE7FEE7FEE7FEE7FEE777
:1001600029060008310100082DE9F05F054600204E
:1001700092469B4688460646814640241BE0284618
:1001800041464746224600F042F853465A46C01AB6
:10019000914110D311461846224600F029F82D1A35
:1001A00067EB01084F4622460120002100F020F8AD
:1001B00017EB00094E41201EA4F10104DFDC484684
:1001C00031462A464346BDE8F09F0000064C074DE5
:1001D00006E0E06840F0010394E807009847103417
:1001E000AC42F6D3FFF7A8FF9C130008BC1300082D
:1001F000202A04DB203A00FA02F1002070479140E7
:10020000C2F1200320FA03F3194390407047202ADB
:1002100004DB203A21FA02F00021704721FA02F3B0
:10022000D040C2F12002914008431946704700BFF8
:10023000FEE7704742F228314FF0E0225161002181
:10024000916107E000BF4FF0E021096901F48031BE
:100250000029F8D00100A0F10100F3D170472DE989
:10026000F04102460025002600200023002400273C
:1002700091F803C00CF00F0591F803C00CF0100CBE
:10028000BCF1000F03D091F802C04CEA050591F8CB
:1002900000C0BCF1000F31D0146800202BE04FF0FB
:1002A000010C0CFA00F3B1F800C00CEA03069E4200
:1002B00020D183004FF00F0C0CFA03F7BC4305FA72
:1002C00003FC4CEA040491F803C0BCF1280F06D1EA
:1002D0004FF0010C0CFA00FCC2F814C00AE091F8CF
:1002E00003C0BCF1480F05D14FF0010C0CFA00FC23
:1002F000C2F810C0401C0828D1D31460B1F800C067
:10030000BCF1FF0F34DD546800202EE000F1080C32
:100310004FF0010808FA0CF3B1F800C00CEA03062C
:100320009E4221D183004FF00F0C0CFA03F7BC431F
:1003300005FA03FC4CEA040491F803C0BCF1280F51
:1003400005D100F1080C08FA0CF8C2F8148091F8F5
:1003500003C0BCF1480F07D100F1080C4FF00108B1
:1003600008FA0CF8C2F81080401C0828CED354605C
:10037000BDE8F081416170470161704700BFFEE751
:1003800000BFFEE77047704729B1064AD2690243B1
:10039000044BDA6104E0034AD2698243014BDA611B
:1003A000704700000010024029B1064A92690243DA
:1003B000044B9A6104E0034A92698243014B9A61BB
:1003C000704700000010024030B5002100220024D8
:1003D00000232D4D6D6805F00C0121B1042905D0D5
:1003E000082923D105E0294D056022E0274D05604D
:1003F0001FE0254D6D6805F47012234D6D6805F4FE
:100400008034022505EB92421CB9214D554305600D
:100410000BE01D4D6D6805F400351DB11C4D5543B5
:10042000056002E0194D5543056002E0174D056077
:1004300000BF00BF144D6D6805F0F0010909154DAE
:100440006B5C0568DD4045600F4D6D6805F4E0614B
:10045000090A104D6B5C4568DD4085600A4D6D688A
:1004600005F46051C90A0B4D6B5C4568DD40C56001
:10047000054D6D6805F44041890B074D6B5CC568FF
:10048000B5FBF3F5056130BD0010024000127A00A3
:1004900000093D001A0000202A00002021B1028836
:1004A00042F04002028004E002884FF6BF731A4017
:1004B00002807047CA4302817047024600201389B8
:1004C0000B400BB1012000E00020704701468889F5
:1004D00070478181704710B50022028802F44152B2
:1004E0000B884C8823438C882343CC8823430C8976
:1004F00023434C8923438C892343CC8923431A43C8
:100500000280838B4FF2FF74234083830B8A038224
:1005100010BD704710B500F001F810BD0CB50020FB
:10052000019000903348006840F480303149086001
:1005300000BF3048006800F4003000900198401C73
:100540000190009818B90198B0F5A06FF1D1294831
:10055000006800F4003010B10120009001E000209C
:1005600000900098012843D12348006840F0100013
:10057000214908600846006820F00300086008462A
:10058000006840F0020008601A4840681949486055
:100590000846406848600846406840F4806048600B
:1005A0000846406820F47C1048600846406840F4E3
:1005B000E81048600846006840F08070086000BF9E
:1005C0000C48006800F000700028F9D00948406825
:1005D00020F00300074948600846406840F00200E8
:1005E000486000BF0348406800F00C000828F9D1BB
:1005F0000CBD00000010024000200240042808D179
:100600004FF0E021096941F004014FF0E02211614F
:1006100007E04FF0E021096921F004014FF0E022EA
:10062000116170477047000010B51348006840F032
:1006300001001149086008464068104908400E4909
:100640004860084600680E4908400B4908600846A3
:10065000006820F4802008600846406820F4FE000E
:1006600048604FF41F008860FFF754FF4FF00060B0
:100670000449086010BD0000001002400000FFF8AF
:10068000FFFFF6FE08ED00E070477047704701F489
:100690000072B2F5007F00D100BFCA4302807047EC
:1006A00021B1828942F40052828104E082894DF6B0
:1006B000FF731A408281704702460020B1F5007F27
:1006C00000D100BF13880B400BB1012000E00020D7
:1006D0007047F0B50346002400260025002040F6B0
:1006E0006A17B94200D100BF1846C1F3421401F0A5
:1006F0001F06012707FA06F5012C01D10C3004E092
:10070000022C01D1103000E014301AB107682F43D9
:10071000076002E00768AF430760F0BD2DE9F047CE
:1007200086B005460E460024A24600BFA14600271B
:10073000B08900B100BF2F462C8A4CF6FF700440F0
:10074000F08804432C82AC894EF6F3100440B08844
:1007500031890843718908430443AC81AC8A4FF660
:10076000FF400440B0890443AC8201A8FFF72CFE8F
:100770001F48874202D1DDF810A001E0DDF80CA08F
:10078000A88900F4004040B10AEBCA0000EB0A104F
:1007900031684900B0FBF1F807E00AEBCA0000EB52
:1007A0000A1031688900B0FBF1F86420B8FBF0F062
:1007B00004012009642101FB1089A88900F400408C
:1007C00040B1322000EBC900B0FBF1F000F00700AF
:1007D000044308E0322000EB09106421B0FBF1F083
:1007E00000F00F0004432C8106B0BDE8F087000044
:1007F00000380140C1F308028280704700BFFEE765
:100800000FB4054B10B503A9044A029800F018F87C
:1008100010BC5DF814FB0000A50C0008300000209F
:1008200002E008C8121F08C1002AFAD170477047B9
:10083000002001E001C1121F002AFBD17047000017
:100840002DE9FF4F8DB00F460546002606E025280E
:100850000BD0DDE90F1290476D1C761C287800281C
:10086000F5D111B03046BDE8F08F0024A246A14674
:100870000122EC4900E0044315F8013F203B02FA55
:1008800003F00842F7D128782A2810D06FF02F0201
:100890002878A0F13001092914D80AEB8A0102EB6B
:1008A000410144F0020400EB010A6D1CF0E701CFA6
:1008B0005FEA000A03D544F40054CAF1000A44F088
:1008C00002046D1C28782E2817D115F8010F44F06A
:1008D00004042A280ED06FF02F022878A0F13001EE
:1008E00009290AD809EB890102EB410100EB010952
:1008F0006D1CF2E757F8049B6D1C28786C280FD00C
:1009000006DC4C2817D068280DD06A2814D104E0E2
:10091000742810D07A280FD10DE044F400140AE0B6
:1009200044F4801401E044F440146978814202D117
:1009300004F580146D1C6D1C2A786E2A1FD00CDC07
:10094000632A31D004DC002A8BD0582A11D1A3E0CD
:10095000642A68D0692A0CD165E0732A2ED004DCA1
:100960006F2A73D0702A04D19BE0752A6FD0782A41
:100970006ED01046DDE90F129047761C50E1C4F3AB
:100980000250022806D0032809D0042801CF09D03C
:10099000066045E101CFF117C0E9006140E101CFF8
:1009A00006803DE106703BE117F8040B8DF800006E
:1009B00000208DF80100EB46012003E057F804BB4E
:1009C0004FF0FF3061074FF0000102D40DE008F155
:1009D0000101884649450FDA8045F8DB1BF808100D
:1009E0000029F4D108E008F1010188468142FADBD0
:1009F0001BF808100029F6D1DDE90F23AAEB080047
:100A00008146214600F036F9304400EB080604E048
:100A1000DDE90F121BF8010B9047B8F10108F7D27E
:100A200021464846F7E00A21C4F302534FF0000B79
:100A30000891022B04D001CFC117032B09D00AE083
:100A4000FF1D27F00707F7E8020108E032E01FE08A
:100A500020E000B2C117042B01D140B2C117031E20
:100A600071F1000307DA4FF0000CD0EB0C006CEBD7
:100A700001012D2302E0230504D52B238DF824301A
:100A8000012303E0E30701D02023F7E7984658E06D
:100A90000A2110E010210EE010204FF0000B08900A
:100AA0000CE010214FF0000B44F004044FF0080953
:100AB000089103E008214FF0000B0891C4F30253A2
:100AC000022B04D001CF0021032B06D006E0FF1D2E
:100AD00027F00707F7E8020103E080B2042B00D1FA
:100AE000C0B24FF0000823072BD5702A07D0DDF8DD
:100AF00020C08CF0100C5CEA0B0C05D00EE04023FB
:100B00008DF82430012308E050EA010306D0302399
:100B10008DF824308DF8252002239846DDF820C07A
:100B20008CF0080C5CEA0B0C0BD150EA010301D1EC
:100B3000630706D530238DF824304FF00108A9F162
:100B40000109582A04D038A20B9208AA0A920BE095
:100B50003AA2F9E75B46089AFFF706FB0B9B9B5C02
:100B60000A9A521E0A92137050EA0102F2D10A98B0
:100B7000ADEB000000F1200B600702D524F48034B7
:100B800001E04FF00109D94502DDA9EB0B0000E0BF
:100B9000002000EB0B0141440890AAEB010AE0039E
:100BA00006D4DDE90F232146504600F063F80644E1
:100BB0004FF0000908E009A911F80900DDE90F125A
:100BC000904709F10109761CC145F4DBE0030CD51F
:100BD000DDE90F232146504600F04CF8064404E0BE
:100BE000DDE90F1230209047761C0899481E0890C6
:100BF0000029F5DC08E00A980A990078491C0A9156
:100C0000DDE90F129047761CBBF10001ABF1010B3F
:100C1000F1DC21465046DDE90F2300F019F80644C7
:100C20006D1C1BE60928010030313233343536376C
:100C30003839616263646566000000003031323328
:100C400034353637383941424344454600000000C8
:100C50002DE9F041044600251E461746880404D4B9
:100C600005E039462020B0476D1C641EF9D52846A2
:100C7000BDE8F0812DE9F041044600251E4690466E
:100C8000C80301D5302700E02027880404D505E0FB
:100C900041463846B0476D1C641EF9D52846BDE86C
:100CA000F081000070B504460D46E1B20748FFF739
:100CB000A1FD00BF40210548FFF7FEFC0028F9D048
:100CC00040210248FFF7E3FC204670BD004400408D
:100CD00008B501210820FFF767FB4FF48050ADF8FD
:100CE000000010208DF8030003208DF802006946F3
:100CF0000448FFF7B4FA4FF480510248FFF73AFB7B
:100D000008BD0000000C014000B587B0012104209F
:100D1000FFF74AFB01210803FFF746FB1020ADF85F
:100D200018008DF81B0003208DF81A0006A9214831
:100D3000FFF795FA10211F48FFF71EFBA020ADF822
:100D4000180018208DF81B0003208DF81A0006A942
:100D50001848FFF784FA4020ADF8180004208DF8F9
:100D60001B0006A91348FFF77AFA0020ADF804002B
:100D70004FF48270ADF806000020ADF80800ADF821
:100D80000A00ADF80C004FF40070ADF80E003020F2
:100D9000ADF810000020ADF812000720ADF81400E7
:100DA00001A90548FFF797FB01210348FFF776FBF0
:100DB00007B000BD000801400030014008B5012126
:100DC0000820FFF7F1FA4FF48060ADF80000102022
:100DD0008DF8030003208DF8020069462148FFF7D3
:100DE0003EFA4FF480611F48FFF7C6FA00F018F989
:100DF000002000F0D8F9802000F0A8F9012000F0D0
:100E0000D2F90021402000F0B7FA0021412000F083
:100E1000B3FA00F0EDF91448007800F0FDF913483A
:100E2000007800F01FFA1248007800F070F90120F5
:100E300000F0C7F90F48007800F05AF9002000F0E0
:100E400076F9FF2000F0CDF940F2FF3000F01CFAF7
:100E5000012000F089F9FF21122000F08DFA00F046
:100E6000E9F908BD000C0140060000200300002045
:100E7000040000200500002010B56FF00400FFF70B
:100E8000BDFB4FF0E020006940F002004FF0E02190
:100E900008610846006940F00100086109204861C6
:100EA00010BD000000B585B001210420FFF77CFAD9
:100EB00001214804FFF768FA0420ADF8100018205B
:100EC0008DF8130003208DF8120004A91548FFF7D0
:100ED000C6F90820ADF8100004208DF8130004A90D
:100EE0001048FFF7BCF94FF4165000900020ADF801
:100EF0000400ADF80600ADF80800ADF80C000C20B9
:100F0000ADF80A0069460848FFF708FC01210648C9
:100F1000FFF7C6FB012240F225510348FFF7D9FB3A
:100F200005B000BD000801400044004008B500BF06
:100F300000BFFFF7A1FFFFF7CBFEFFF7B3FF11A143
:100F4000124800F0B7F8FFF7DFFEFFF737FF10A1F8
:100F50000E4800F0AFF813E00121684600F0C4F934
:100F60009DF80000401CC0B200909DF800100CA03D
:100F7000FFF746FC00F0AEF94FF4FA60FFF75AF9BC
:100F8000EAE70000696E6974206F6B00004400405E
:100F9000696E6974535831323738206F6B00000026
:100FA0007472616E736D69745061636B65747320E4
:100FB00069732025640A000010B500BF02210E48A5
:100FC000FFF77BFA0028F9D002210B48FFF772FAED
:100FD000FF210948FFF77DFA00BF01210648FFF70E
:100FE0006CFA0028F9D001210348FFF763FA0248A0
:100FF000FFF76CFA10BD00000030014070B50446E8
:10100000002000F065F804F07F0000F031F8FFF7F1
:10101000D3FFC5B2012000F05BF8284670BD000088
:1010200010B54FF480610748FFF7A4F90A20FFF7D5
:1010300001F94FF480610348FFF79EF90A20FFF79A
:10104000F9F810BD000C014070B504460D46402172
:101050002046FFF71CFB29462046FFF7CBFB00BFCD
:1010600040212046FFF728FB0028F9D070BD000082
:1010700010B5044600BF02210D48FFF71EFA0028F4
:10108000F9D002210A48FFF715FA21460848FFF770
:1010900020FA00BF01210648FFF70FFA0028F9D017
:1010A00001210348FFF706FA0148FFF70FFA10BDC8
:1010B0000030014070B505460C4604E014F8011BF1
:1010C0002846FFF7C1FF20780028F7D170BD000047
:1010D00010B5044624B110210448FFF74DF903E090
:1010E00010210248FFF746F910BD0000000801403A
:1010F00070B504461D20FFF781FF0546284664F3BE
:101100001F10C5B229461D2000F036F970BD70B51C
:1011100004461D20FFF772FF054605F0F10040EA86
:101120004400C5B229461D2000F026F970BD70B5F7
:1011300004461D20FFF762FF054605F0FE0040EA69
:10114000040529461D2000F017F970BD70B505464D
:101150000120FFF753FF044604F07F042C4321468F
:10116000012000F009F970BD70B504462620FFF794
:1011700045FF054605F0F70040EAC400C5B2294620
:10118000262000F0F9F870BD70B504463120FFF755
:1011900035FF054605F0F80040EA040529463120F0
:1011A00000F0EAF870BD70B505460120FFF726FF94
:1011B000044604F0F8042C432146012000F0DCF83A
:1011C00070BD70B504461E20FFF718FF054605F0F8
:1011D000FB0040EA8400C5B229461E2000F0CCF88E
:1011E00070BD10B504462146222000F0C5F810BDA0
:1011F00010B508480178062000F0BEF8054841788F
:10120000072000F0B9F803488178082000F0B4F80E
:1012100010BD00000000002010B5044687214D20BD
:1012200000F0AAF80248015D092000F0A5F810BD01
:101230000700002010B50120FFF7B5FF9F21112006
:1012400000F09AF8FF21242000F096F800214020B9
:1012500000F092F80021412000F08EF80520FFF701
:10126000A2FF10BD70B504460320FFF78DFF1E20BE
:10127000FFF7C4FE0546284664F31F10C5B2294691
:101280001E2000F079F870BD38B504461E20FFF727
:10129000B5FE8DF800001F20FFF7B0FE8DF80100AD
:1012A0009DF8000000F0FC00032101EA142108432E
:1012B000C0B28DF80000E0B28DF801009DF800107A
:1012C0001E2000F059F89DF801101F2000F054F87E
:1012D00038BD00000348006880F480500149086070
:1012E000704700000C0C014070B504460D4601200B
:1012F000FFF759FF0021242000F03EF8F7211120CC
:1013000000F03AF82946222000F036F800210E209D
:1013100000F032F800210D2000F02EF80020FFF739
:10132000D7FE8020FFF7A4FE002605E02078FFF717
:101330009FFE641C701CC6B2AE42F7DB0120FFF7B3
:10134000C7FE4021084600F017F80021412000F0B8
:1013500013F80320FFF727FF02E01420FEF76AFFCF
:101360001220FFF74BFE00F008000828F5D1FF21FE
:10137000122000F001F870BD70B504460D46002043
:10138000FFF7A6FE44F08000FFF772FE2846FFF745
:101390006FFE0120FFF79CFE70BD0000BC1300082B
:1013A000000000203400000020080008F0130008AE
:1013B0003400002004040000300800086C8000079E
:1013C00002090F808182838485868788898A8B8C35
:1013D0008D8E8F0000000000000001020304010256
:1013E00003040607080902040608000000000000C4
:0400000508000131BD
:00000001FF
